{
  "contractName": "ChainERC20",
  "abi": [
    {
      "inputs": [
        {
          "internalType": "string",
          "name": "_name",
          "type": "string"
        },
        {
          "internalType": "string",
          "name": "_symbol",
          "type": "string"
        }
      ],
      "stateMutability": "nonpayable",
      "type": "constructor"
    },
    {
      "anonymous": false,
      "inputs": [
        {
          "indexed": true,
          "internalType": "address",
          "name": "owner",
          "type": "address"
        },
        {
          "indexed": true,
          "internalType": "address",
          "name": "spender",
          "type": "address"
        },
        {
          "indexed": false,
          "internalType": "uint256",
          "name": "value",
          "type": "uint256"
        }
      ],
      "name": "Approval",
      "type": "event"
    },
    {
      "anonymous": false,
      "inputs": [
        {
          "indexed": true,
          "internalType": "address",
          "name": "from",
          "type": "address"
        },
        {
          "indexed": true,
          "internalType": "address",
          "name": "to",
          "type": "address"
        },
        {
          "indexed": false,
          "internalType": "uint256",
          "name": "amount",
          "type": "uint256"
        }
      ],
      "name": "Fee",
      "type": "event"
    },
    {
      "anonymous": false,
      "inputs": [
        {
          "indexed": true,
          "internalType": "address",
          "name": "from",
          "type": "address"
        },
        {
          "indexed": true,
          "internalType": "address",
          "name": "to",
          "type": "address"
        },
        {
          "indexed": false,
          "internalType": "uint256",
          "name": "value",
          "type": "uint256"
        }
      ],
      "name": "Transfer",
      "type": "event"
    },
    {
      "inputs": [
        {
          "internalType": "address",
          "name": "owner",
          "type": "address"
        },
        {
          "internalType": "address",
          "name": "spender",
          "type": "address"
        }
      ],
      "name": "allowance",
      "outputs": [
        {
          "internalType": "uint256",
          "name": "",
          "type": "uint256"
        }
      ],
      "stateMutability": "view",
      "type": "function",
      "constant": true
    },
    {
      "inputs": [
        {
          "internalType": "address",
          "name": "spender",
          "type": "address"
        },
        {
          "internalType": "uint256",
          "name": "amount",
          "type": "uint256"
        }
      ],
      "name": "approve",
      "outputs": [
        {
          "internalType": "bool",
          "name": "",
          "type": "bool"
        }
      ],
      "stateMutability": "nonpayable",
      "type": "function"
    },
    {
      "inputs": [
        {
          "internalType": "address",
          "name": "account",
          "type": "address"
        }
      ],
      "name": "balanceOf",
      "outputs": [
        {
          "internalType": "uint256",
          "name": "",
          "type": "uint256"
        }
      ],
      "stateMutability": "view",
      "type": "function",
      "constant": true
    },
    {
      "inputs": [],
      "name": "decimals",
      "outputs": [
        {
          "internalType": "uint8",
          "name": "",
          "type": "uint8"
        }
      ],
      "stateMutability": "view",
      "type": "function",
      "constant": true
    },
    {
      "inputs": [
        {
          "internalType": "address",
          "name": "spender",
          "type": "address"
        },
        {
          "internalType": "uint256",
          "name": "subtractedValue",
          "type": "uint256"
        }
      ],
      "name": "decreaseAllowance",
      "outputs": [
        {
          "internalType": "bool",
          "name": "",
          "type": "bool"
        }
      ],
      "stateMutability": "nonpayable",
      "type": "function"
    },
    {
      "inputs": [],
      "name": "feeConfigAddress",
      "outputs": [
        {
          "internalType": "address",
          "name": "",
          "type": "address"
        }
      ],
      "stateMutability": "view",
      "type": "function",
      "constant": true
    },
    {
      "inputs": [
        {
          "internalType": "address",
          "name": "spender",
          "type": "address"
        },
        {
          "internalType": "uint256",
          "name": "addedValue",
          "type": "uint256"
        }
      ],
      "name": "increaseAllowance",
      "outputs": [
        {
          "internalType": "bool",
          "name": "",
          "type": "bool"
        }
      ],
      "stateMutability": "nonpayable",
      "type": "function"
    },
    {
      "inputs": [],
      "name": "name",
      "outputs": [
        {
          "internalType": "string",
          "name": "",
          "type": "string"
        }
      ],
      "stateMutability": "view",
      "type": "function",
      "constant": true
    },
    {
      "inputs": [],
      "name": "owner",
      "outputs": [
        {
          "internalType": "address",
          "name": "",
          "type": "address"
        }
      ],
      "stateMutability": "view",
      "type": "function",
      "constant": true
    },
    {
      "inputs": [],
      "name": "symbol",
      "outputs": [
        {
          "internalType": "string",
          "name": "",
          "type": "string"
        }
      ],
      "stateMutability": "view",
      "type": "function",
      "constant": true
    },
    {
      "inputs": [
        {
          "internalType": "address",
          "name": "to",
          "type": "address"
        },
        {
          "internalType": "uint256",
          "name": "amount",
          "type": "uint256"
        }
      ],
      "name": "transfer",
      "outputs": [
        {
          "internalType": "bool",
          "name": "",
          "type": "bool"
        }
      ],
      "stateMutability": "nonpayable",
      "type": "function"
    },
    {
      "inputs": [
        {
          "internalType": "address",
          "name": "from",
          "type": "address"
        },
        {
          "internalType": "address",
          "name": "to",
          "type": "address"
        },
        {
          "internalType": "uint256",
          "name": "amount",
          "type": "uint256"
        }
      ],
      "name": "transferFrom",
      "outputs": [
        {
          "internalType": "bool",
          "name": "",
          "type": "bool"
        }
      ],
      "stateMutability": "nonpayable",
      "type": "function"
    },
    {
      "inputs": [],
      "name": "totalSupply",
      "outputs": [
        {
          "internalType": "uint256",
          "name": "",
          "type": "uint256"
        }
      ],
      "stateMutability": "view",
      "type": "function",
      "constant": true
    },
    {
      "inputs": [
        {
          "internalType": "uint256",
          "name": "amount",
          "type": "uint256"
        }
      ],
      "name": "mint",
      "outputs": [
        {
          "internalType": "bool",
          "name": "",
          "type": "bool"
        }
      ],
      "stateMutability": "nonpayable",
      "type": "function"
    },
    {
      "inputs": [
        {
          "internalType": "uint256",
          "name": "amount",
          "type": "uint256"
        }
      ],
      "name": "burn",
      "outputs": [
        {
          "internalType": "bool",
          "name": "",
          "type": "bool"
        }
      ],
      "stateMutability": "nonpayable",
      "type": "function"
    },
    {
      "inputs": [
        {
          "internalType": "address",
          "name": "feeAddress",
          "type": "address"
        }
      ],
      "name": "configFeeAddress",
      "outputs": [
        {
          "internalType": "bool",
          "name": "",
          "type": "bool"
        }
      ],
      "stateMutability": "nonpayable",
      "type": "function"
    },
    {
      "inputs": [
        {
          "internalType": "address",
          "name": "from",
          "type": "address"
        },
        {
          "internalType": "address",
          "name": "to",
          "type": "address"
        },
        {
          "internalType": "uint256",
          "name": "amount",
          "type": "uint256"
        },
        {
          "internalType": "uint256",
          "name": "fee",
          "type": "uint256"
        }
      ],
      "name": "collectTransferFee",
      "outputs": [
        {
          "internalType": "bool",
          "name": "",
          "type": "bool"
        }
      ],
      "stateMutability": "nonpayable",
      "type": "function"
    },
    {
      "inputs": [
        {
          "internalType": "address",
          "name": "recipient",
          "type": "address"
        },
        {
          "internalType": "uint256",
          "name": "amount",
          "type": "uint256"
        }
      ],
      "name": "transferBurn",
      "outputs": [
        {
          "internalType": "bool",
          "name": "",
          "type": "bool"
        }
      ],
      "stateMutability": "nonpayable",
      "type": "function"
    }
  ],
  "bytecode": "0x60806040523480156200001157600080fd5b5060405162002d9a38038062002d9a833981810160405281019062000037919062000402565b818181600390816200004a9190620006d2565b5080600490816200005c9190620006d2565b50505033600660006101000a81548173ffffffffffffffffffffffffffffffffffffffff021916908373ffffffffffffffffffffffffffffffffffffffff160217905550620000b0620000ef60201b60201c565b600a620000be919062000949565b6103e8620000cd91906200099a565b600581905550620000e733600554620000f860201b60201c565b505062000ad1565b60006012905090565b600073ffffffffffffffffffffffffffffffffffffffff168273ffffffffffffffffffffffffffffffffffffffff16036200016a576040517f08c379a0000000000000000000000000000000000000000000000000000000008152600401620001619062000a46565b60405180910390fd5b6200017e600083836200026560201b60201c565b806002600082825462000192919062000a68565b92505081905550806000808473ffffffffffffffffffffffffffffffffffffffff1673ffffffffffffffffffffffffffffffffffffffff168152602001908152602001600020600082825401925050819055508173ffffffffffffffffffffffffffffffffffffffff16600073ffffffffffffffffffffffffffffffffffffffff167fddf252ad1be2c89b69c2b068fc378daa952ba7f163c4a11628f55a4df523b3ef8360405162000245919062000ab4565b60405180910390a362000261600083836200026a60201b60201c565b5050565b505050565b505050565b6000604051905090565b600080fd5b600080fd5b600080fd5b600080fd5b6000601f19601f8301169050919050565b7f4e487b7100000000000000000000000000000000000000000000000000000000600052604160045260246000fd5b620002d8826200028d565b810181811067ffffffffffffffff82111715620002fa57620002f96200029e565b5b80604052505050565b60006200030f6200026f565b90506200031d8282620002cd565b919050565b600067ffffffffffffffff82111562000340576200033f6200029e565b5b6200034b826200028d565b9050602081019050919050565b60005b83811015620003785780820151818401526020810190506200035b565b60008484015250505050565b60006200039b620003958462000322565b62000303565b905082815260208101848484011115620003ba57620003b962000288565b5b620003c784828562000358565b509392505050565b600082601f830112620003e757620003e662000283565b5b8151620003f984826020860162000384565b91505092915050565b600080604083850312156200041c576200041b62000279565b5b600083015167ffffffffffffffff8111156200043d576200043c6200027e565b5b6200044b85828601620003cf565b925050602083015167ffffffffffffffff8111156200046f576200046e6200027e565b5b6200047d85828601620003cf565b9150509250929050565b600081519050919050565b7f4e487b7100000000000000000000000000000000000000000000000000000000600052602260045260246000fd5b60006002820490506001821680620004da57607f821691505b602082108103620004f057620004ef62000492565b5b50919050565b60008190508160005260206000209050919050565b60006020601f8301049050919050565b600082821b905092915050565b6000600883026200055a7fffffffffffffffffffffffffffffffffffffffffffffffffffffffffffffffff826200051b565b6200056686836200051b565b95508019841693508086168417925050509392505050565b6000819050919050565b6000819050919050565b6000620005b3620005ad620005a7846200057e565b62000588565b6200057e565b9050919050565b6000819050919050565b620005cf8362000592565b620005e7620005de82620005ba565b84845462000528565b825550505050565b600090565b620005fe620005ef565b6200060b818484620005c4565b505050565b5b81811015620006335762000627600082620005f4565b60018101905062000611565b5050565b601f82111562000682576200064c81620004f6565b62000657846200050b565b8101602085101562000667578190505b6200067f62000676856200050b565b83018262000610565b50505b505050565b600082821c905092915050565b6000620006a76000198460080262000687565b1980831691505092915050565b6000620006c2838362000694565b9150826002028217905092915050565b620006dd8262000487565b67ffffffffffffffff811115620006f957620006f86200029e565b5b620007058254620004c1565b6200071282828562000637565b600060209050601f8311600181146200074a576000841562000735578287015190505b620007418582620006b4565b865550620007b1565b601f1984166200075a86620004f6565b60005b8281101562000784578489015182556001820191506020850194506020810190506200075d565b86831015620007a45784890151620007a0601f89168262000694565b8355505b6001600288020188555050505b505050505050565b7f4e487b7100000000000000000000000000000000000000000000000000000000600052601160045260246000fd5b60008160011c9050919050565b6000808291508390505b600185111562000847578086048111156200081f576200081e620007b9565b5b60018516156200082f5780820291505b80810290506200083f85620007e8565b9450620007ff565b94509492505050565b60008262000862576001905062000935565b8162000872576000905062000935565b81600181146200088b57600281146200089657620008cc565b600191505062000935565b60ff841115620008ab57620008aa620007b9565b5b8360020a915084821115620008c557620008c4620007b9565b5b5062000935565b5060208310610133831016604e8410600b8410161715620009065782820a9050838111156200090057620008ff620007b9565b5b62000935565b620009158484846001620007f5565b925090508184048111156200092f576200092e620007b9565b5b81810290505b9392505050565b600060ff82169050919050565b600062000956826200057e565b915062000963836200093c565b9250620009927fffffffffffffffffffffffffffffffffffffffffffffffffffffffffffffffff848462000850565b905092915050565b6000620009a7826200057e565b9150620009b4836200057e565b9250828202620009c4816200057e565b91508282048414831517620009de57620009dd620007b9565b5b5092915050565b600082825260208201905092915050565b7f45524332303a206d696e7420746f20746865207a65726f206164647265737300600082015250565b600062000a2e601f83620009e5565b915062000a3b82620009f6565b602082019050919050565b6000602082019050818103600083015262000a618162000a1f565b9050919050565b600062000a75826200057e565b915062000a82836200057e565b925082820190508082111562000a9d5762000a9c620007b9565b5b92915050565b62000aae816200057e565b82525050565b600060208201905062000acb600083018462000aa3565b92915050565b6122b98062000ae16000396000f3fe608060405234801561001057600080fd5b50600436106101165760003560e01c806370a08231116100a2578063a0712d6811610071578063a0712d681461031f578063a457c2d71461034f578063a9059cbb1461037f578063b4358696146103af578063dd62ed3e146103df57610116565b806370a082311461029557806375d87f40146102c55780638da5cb5b146102e357806395d89b411461030157610116565b8063313ce567116100e9578063313ce567146101b757806334aa1bf8146101d5578063395093511461020557806342966c68146102355780635ffda9fc1461026557610116565b806306fdde031461011b578063095ea7b31461013957806318160ddd1461016957806323b872dd14610187575b600080fd5b61012361040f565b60405161013091906114b2565b60405180910390f35b610153600480360381019061014e919061156d565b6104a1565b60405161016091906115c8565b60405180910390f35b6101716104c4565b60405161017e91906115f2565b60405180910390f35b6101a1600480360381019061019c919061160d565b6104ce565b6040516101ae91906115c8565b60405180910390f35b6101bf6104fd565b6040516101cc919061167c565b60405180910390f35b6101ef60048036038101906101ea9190611697565b610506565b6040516101fc91906115c8565b60405180910390f35b61021f600480360381019061021a919061156d565b6105e2565b60405161022c91906115c8565b60405180910390f35b61024f600480360381019061024a91906116c4565b610619565b60405161025c91906115c8565b60405180910390f35b61027f600480360381019061027a919061156d565b6106dc565b60405161028c91906115c8565b60405180910390f35b6102af60048036038101906102aa9190611697565b61072b565b6040516102bc91906115f2565b60405180910390f35b6102cd610773565b6040516102da9190611700565b60405180910390f35b6102eb610799565b6040516102f89190611700565b60405180910390f35b6103096107bf565b60405161031691906114b2565b60405180910390f35b610339600480360381019061033491906116c4565b610851565b60405161034691906115c8565b60405180910390f35b6103696004803603810190610364919061156d565b610921565b60405161037691906115c8565b60405180910390f35b6103996004803603810190610394919061156d565b610998565b6040516103a691906115c8565b60405180910390f35b6103c960048036038101906103c4919061171b565b6109bb565b6040516103d691906115c8565b60405180910390f35b6103f960048036038101906103f49190611782565b610b9b565b60405161040691906115f2565b60405180910390f35b60606003805461041e906117f1565b80601f016020809104026020016040519081016040528092919081815260200182805461044a906117f1565b80156104975780601f1061046c57610100808354040283529160200191610497565b820191906000526020600020905b81548152906001019060200180831161047a57829003601f168201915b5050505050905090565b6000806104ac610c22565b90506104b9818585610c2a565b600191505092915050565b6000600554905090565b6000806104d9610c22565b90506104e6858285610df3565b6104f1858585610e7f565b60019150509392505050565b60006012905090565b6000600660009054906101000a900473ffffffffffffffffffffffffffffffffffffffff1673ffffffffffffffffffffffffffffffffffffffff163373ffffffffffffffffffffffffffffffffffffffff1614610598576040517f08c379a000000000000000000000000000000000000000000000000000000000815260040161058f9061186e565b60405180910390fd5b81600760006101000a81548173ffffffffffffffffffffffffffffffffffffffff021916908373ffffffffffffffffffffffffffffffffffffffff16021790555060019050919050565b6000806105ed610c22565b905061060e8185856105ff8589610b9b565b61060991906118bd565b610c2a565b600191505092915050565b6000600660009054906101000a900473ffffffffffffffffffffffffffffffffffffffff1673ffffffffffffffffffffffffffffffffffffffff163373ffffffffffffffffffffffffffffffffffffffff16146106ab576040517f08c379a00000000000000000000000000000000000000000000000000000000081526004016106a29061193d565b60405180910390fd5b6106d3336106b76104fd565b600a6106c39190611a90565b846106ce9190611adb565b6110f5565b60019050919050565b6000806064600a846106ee9190611adb565b6106f89190611b4c565b9050600081846107089190611b7d565b905061071433836110f5565b61071f338683610e7f565b60019250505092915050565b60008060008373ffffffffffffffffffffffffffffffffffffffff1673ffffffffffffffffffffffffffffffffffffffff168152602001908152602001600020549050919050565b600760009054906101000a900473ffffffffffffffffffffffffffffffffffffffff1681565b600660009054906101000a900473ffffffffffffffffffffffffffffffffffffffff1681565b6060600480546107ce906117f1565b80601f01602080910402602001604051908101604052809291908181526020018280546107fa906117f1565b80156108475780601f1061081c57610100808354040283529160200191610847565b820191906000526020600020905b81548152906001019060200180831161082a57829003601f168201915b5050505050905090565b6000600660009054906101000a900473ffffffffffffffffffffffffffffffffffffffff1673ffffffffffffffffffffffffffffffffffffffff163373ffffffffffffffffffffffffffffffffffffffff16146108e3576040517f08c379a00000000000000000000000000000000000000000000000000000000081526004016108da90611c23565b60405180910390fd5b610918336108ef6104fd565b600a6108fb9190611a90565b846109069190611adb565b60055461091391906118bd565b6112c2565b60019050919050565b60008061092c610c22565b9050600061093a8286610b9b565b90508381101561097f576040517f08c379a000000000000000000000000000000000000000000000000000000000815260040161097690611cb5565b60405180910390fd5b61098c8286868403610c2a565b60019250505092915050565b6000806109a3610c22565b90506109b0818585610e7f565b600191505092915050565b600080821180156109cd575060648211155b610a0c576040517f08c379a0000000000000000000000000000000000000000000000000000000008152600401610a0390611d21565b60405180910390fd5b610a158561072b565b831115610a57576040517f08c379a0000000000000000000000000000000000000000000000000000000008152600401610a4e90611d8d565b60405180910390fd5b600060648385610a679190611adb565b610a719190611b4c565b905060008185610a819190611b7d565b9050610a8e878783610e7f565b8360086000600760009054906101000a900473ffffffffffffffffffffffffffffffffffffffff1673ffffffffffffffffffffffffffffffffffffffff1673ffffffffffffffffffffffffffffffffffffffff1681526020019081526020016000206000828254610aff91906118bd565b92505081905550600660009054906101000a900473ffffffffffffffffffffffffffffffffffffffff1673ffffffffffffffffffffffffffffffffffffffff168773ffffffffffffffffffffffffffffffffffffffff167f6ded982279c8387ad8a63e73385031a3807c1862e633f06e09d11bcb6e282f6086604051610b8591906115f2565b60405180910390a3600192505050949350505050565b6000600160008473ffffffffffffffffffffffffffffffffffffffff1673ffffffffffffffffffffffffffffffffffffffff16815260200190815260200160002060008373ffffffffffffffffffffffffffffffffffffffff1673ffffffffffffffffffffffffffffffffffffffff16815260200190815260200160002054905092915050565b600033905090565b600073ffffffffffffffffffffffffffffffffffffffff168373ffffffffffffffffffffffffffffffffffffffff1603610c99576040517f08c379a0000000000000000000000000000000000000000000000000000000008152600401610c9090611e1f565b60405180910390fd5b600073ffffffffffffffffffffffffffffffffffffffff168273ffffffffffffffffffffffffffffffffffffffff1603610d08576040517f08c379a0000000000000000000000000000000000000000000000000000000008152600401610cff90611eb1565b60405180910390fd5b80600160008573ffffffffffffffffffffffffffffffffffffffff1673ffffffffffffffffffffffffffffffffffffffff16815260200190815260200160002060008473ffffffffffffffffffffffffffffffffffffffff1673ffffffffffffffffffffffffffffffffffffffff168152602001908152602001600020819055508173ffffffffffffffffffffffffffffffffffffffff168373ffffffffffffffffffffffffffffffffffffffff167f8c5be1e5ebec7d5bd14f71427d1e84f3dd0314c0f7b2291e5b200ac8c7c3b92583604051610de691906115f2565b60405180910390a3505050565b6000610dff8484610b9b565b90507fffffffffffffffffffffffffffffffffffffffffffffffffffffffffffffffff8114610e795781811015610e6b576040517f08c379a0000000000000000000000000000000000000000000000000000000008152600401610e6290611f1d565b60405180910390fd5b610e788484848403610c2a565b5b50505050565b600073ffffffffffffffffffffffffffffffffffffffff168373ffffffffffffffffffffffffffffffffffffffff1603610eee576040517f08c379a0000000000000000000000000000000000000000000000000000000008152600401610ee590611faf565b60405180910390fd5b600073ffffffffffffffffffffffffffffffffffffffff168273ffffffffffffffffffffffffffffffffffffffff1603610f5d576040517f08c379a0000000000000000000000000000000000000000000000000000000008152600401610f5490612041565b60405180910390fd5b610f68838383611418565b60008060008573ffffffffffffffffffffffffffffffffffffffff1673ffffffffffffffffffffffffffffffffffffffff16815260200190815260200160002054905081811015610fee576040517f08c379a0000000000000000000000000000000000000000000000000000000008152600401610fe5906120d3565b60405180910390fd5b8181036000808673ffffffffffffffffffffffffffffffffffffffff1673ffffffffffffffffffffffffffffffffffffffff16815260200190815260200160002081905550816000808573ffffffffffffffffffffffffffffffffffffffff1673ffffffffffffffffffffffffffffffffffffffff168152602001908152602001600020600082825401925050819055508273ffffffffffffffffffffffffffffffffffffffff168473ffffffffffffffffffffffffffffffffffffffff167fddf252ad1be2c89b69c2b068fc378daa952ba7f163c4a11628f55a4df523b3ef846040516110dc91906115f2565b60405180910390a36110ef84848461141d565b50505050565b600073ffffffffffffffffffffffffffffffffffffffff168273ffffffffffffffffffffffffffffffffffffffff1603611164576040517f08c379a000000000000000000000000000000000000000000000000000000000815260040161115b90612165565b60405180910390fd5b61117082600083611418565b60008060008473ffffffffffffffffffffffffffffffffffffffff1673ffffffffffffffffffffffffffffffffffffffff168152602001908152602001600020549050818110156111f6576040517f08c379a00000000000000000000000000000000000000000000000000000000081526004016111ed906121f7565b60405180910390fd5b8181036000808573ffffffffffffffffffffffffffffffffffffffff1673ffffffffffffffffffffffffffffffffffffffff1681526020019081526020016000208190555081600260008282540392505081905550600073ffffffffffffffffffffffffffffffffffffffff168373ffffffffffffffffffffffffffffffffffffffff167fddf252ad1be2c89b69c2b068fc378daa952ba7f163c4a11628f55a4df523b3ef846040516112a991906115f2565b60405180910390a36112bd8360008461141d565b505050565b600073ffffffffffffffffffffffffffffffffffffffff168273ffffffffffffffffffffffffffffffffffffffff1603611331576040517f08c379a000000000000000000000000000000000000000000000000000000000815260040161132890612263565b60405180910390fd5b61133d60008383611418565b806002600082825461134f91906118bd565b92505081905550806000808473ffffffffffffffffffffffffffffffffffffffff1673ffffffffffffffffffffffffffffffffffffffff168152602001908152602001600020600082825401925050819055508173ffffffffffffffffffffffffffffffffffffffff16600073ffffffffffffffffffffffffffffffffffffffff167fddf252ad1be2c89b69c2b068fc378daa952ba7f163c4a11628f55a4df523b3ef8360405161140091906115f2565b60405180910390a36114146000838361141d565b5050565b505050565b505050565b600081519050919050565b600082825260208201905092915050565b60005b8381101561145c578082015181840152602081019050611441565b60008484015250505050565b6000601f19601f8301169050919050565b600061148482611422565b61148e818561142d565b935061149e81856020860161143e565b6114a781611468565b840191505092915050565b600060208201905081810360008301526114cc8184611479565b905092915050565b600080fd5b600073ffffffffffffffffffffffffffffffffffffffff82169050919050565b6000611504826114d9565b9050919050565b611514816114f9565b811461151f57600080fd5b50565b6000813590506115318161150b565b92915050565b6000819050919050565b61154a81611537565b811461155557600080fd5b50565b60008135905061156781611541565b92915050565b60008060408385031215611584576115836114d4565b5b600061159285828601611522565b92505060206115a385828601611558565b9150509250929050565b60008115159050919050565b6115c2816115ad565b82525050565b60006020820190506115dd60008301846115b9565b92915050565b6115ec81611537565b82525050565b600060208201905061160760008301846115e3565b92915050565b600080600060608486031215611626576116256114d4565b5b600061163486828701611522565b935050602061164586828701611522565b925050604061165686828701611558565b9150509250925092565b600060ff82169050919050565b61167681611660565b82525050565b6000602082019050611691600083018461166d565b92915050565b6000602082840312156116ad576116ac6114d4565b5b60006116bb84828501611522565b91505092915050565b6000602082840312156116da576116d96114d4565b5b60006116e884828501611558565b91505092915050565b6116fa816114f9565b82525050565b600060208201905061171560008301846116f1565b92915050565b60008060008060808587031215611735576117346114d4565b5b600061174387828801611522565b945050602061175487828801611522565b935050604061176587828801611558565b925050606061177687828801611558565b91505092959194509250565b60008060408385031215611799576117986114d4565b5b60006117a785828601611522565b92505060206117b885828601611522565b9150509250929050565b7f4e487b7100000000000000000000000000000000000000000000000000000000600052602260045260246000fd5b6000600282049050600182168061180957607f821691505b60208210810361181c5761181b6117c2565b5b50919050565b7f4f6e6c7920746865206f776e65722063616e20636f6e66696720666565000000600082015250565b6000611858601d8361142d565b915061186382611822565b602082019050919050565b600060208201905081810360008301526118878161184b565b9050919050565b7f4e487b7100000000000000000000000000000000000000000000000000000000600052601160045260246000fd5b60006118c882611537565b91506118d383611537565b92508282019050808211156118eb576118ea61188e565b5b92915050565b7f4f6e6c7920746865206f776e65722063616e206275726e20746f6b656e730000600082015250565b6000611927601e8361142d565b9150611932826118f1565b602082019050919050565b600060208201905081810360008301526119568161191a565b9050919050565b60008160011c9050919050565b6000808291508390505b60018511156119b4578086048111156119905761198f61188e565b5b600185161561199f5780820291505b80810290506119ad8561195d565b9450611974565b94509492505050565b6000826119cd5760019050611a89565b816119db5760009050611a89565b81600181146119f157600281146119fb57611a2a565b6001915050611a89565b60ff841115611a0d57611a0c61188e565b5b8360020a915084821115611a2457611a2361188e565b5b50611a89565b5060208310610133831016604e8410600b8410161715611a5f5782820a905083811115611a5a57611a5961188e565b5b611a89565b611a6c848484600161196a565b92509050818404811115611a8357611a8261188e565b5b81810290505b9392505050565b6000611a9b82611537565b9150611aa683611660565b9250611ad37fffffffffffffffffffffffffffffffffffffffffffffffffffffffffffffffff84846119bd565b905092915050565b6000611ae682611537565b9150611af183611537565b9250828202611aff81611537565b91508282048414831517611b1657611b1561188e565b5b5092915050565b7f4e487b7100000000000000000000000000000000000000000000000000000000600052601260045260246000fd5b6000611b5782611537565b9150611b6283611537565b925082611b7257611b71611b1d565b5b828204905092915050565b6000611b8882611537565b9150611b9383611537565b9250828203905081811115611bab57611baa61188e565b5b92915050565b7f4f6e6c7920746865206f776e65722063616e206d696e74206e657720746f6b6560008201527f6e73000000000000000000000000000000000000000000000000000000000000602082015250565b6000611c0d60228361142d565b9150611c1882611bb1565b604082019050919050565b60006020820190508181036000830152611c3c81611c00565b9050919050565b7f45524332303a2064656372656173656420616c6c6f77616e63652062656c6f7760008201527f207a65726f000000000000000000000000000000000000000000000000000000602082015250565b6000611c9f60258361142d565b9150611caa82611c43565b604082019050919050565b60006020820190508181036000830152611cce81611c92565b9050919050565b7f496e76616c696420666565200000000000000000000000000000000000000000600082015250565b6000611d0b600c8361142d565b9150611d1682611cd5565b602082019050919050565b60006020820190508181036000830152611d3a81611cfe565b9050919050565b7f62616c616e6365206e6f7420696e2072616e6765000000000000000000000000600082015250565b6000611d7760148361142d565b9150611d8282611d41565b602082019050919050565b60006020820190508181036000830152611da681611d6a565b9050919050565b7f45524332303a20617070726f76652066726f6d20746865207a65726f2061646460008201527f7265737300000000000000000000000000000000000000000000000000000000602082015250565b6000611e0960248361142d565b9150611e1482611dad565b604082019050919050565b60006020820190508181036000830152611e3881611dfc565b9050919050565b7f45524332303a20617070726f766520746f20746865207a65726f20616464726560008201527f7373000000000000000000000000000000000000000000000000000000000000602082015250565b6000611e9b60228361142d565b9150611ea682611e3f565b604082019050919050565b60006020820190508181036000830152611eca81611e8e565b9050919050565b7f45524332303a20696e73756666696369656e7420616c6c6f77616e6365000000600082015250565b6000611f07601d8361142d565b9150611f1282611ed1565b602082019050919050565b60006020820190508181036000830152611f3681611efa565b9050919050565b7f45524332303a207472616e736665722066726f6d20746865207a65726f20616460008201527f6472657373000000000000000000000000000000000000000000000000000000602082015250565b6000611f9960258361142d565b9150611fa482611f3d565b604082019050919050565b60006020820190508181036000830152611fc881611f8c565b9050919050565b7f45524332303a207472616e7366657220746f20746865207a65726f206164647260008201527f6573730000000000000000000000000000000000000000000000000000000000602082015250565b600061202b60238361142d565b915061203682611fcf565b604082019050919050565b6000602082019050818103600083015261205a8161201e565b9050919050565b7f45524332303a207472616e7366657220616d6f756e742065786365656473206260008201527f616c616e63650000000000000000000000000000000000000000000000000000602082015250565b60006120bd60268361142d565b91506120c882612061565b604082019050919050565b600060208201905081810360008301526120ec816120b0565b9050919050565b7f45524332303a206275726e2066726f6d20746865207a65726f2061646472657360008201527f7300000000000000000000000000000000000000000000000000000000000000602082015250565b600061214f60218361142d565b915061215a826120f3565b604082019050919050565b6000602082019050818103600083015261217e81612142565b9050919050565b7f45524332303a206275726e20616d6f756e7420657863656564732062616c616e60008201527f6365000000000000000000000000000000000000000000000000000000000000602082015250565b60006121e160228361142d565b91506121ec82612185565b604082019050919050565b60006020820190508181036000830152612210816121d4565b9050919050565b7f45524332303a206d696e7420746f20746865207a65726f206164647265737300600082015250565b600061224d601f8361142d565b915061225882612217565b602082019050919050565b6000602082019050818103600083015261227c81612240565b905091905056fea2646970667358221220d4b8b76f537b3047034dbac11e9640b72309ff2642044f7f71162886bb4ede0e64736f6c63430008120033",
  "immutableReferences": {},
  "source": "// SPDX-License-Identifier: MIT\r\npragma solidity ^0.8.18;\r\n\r\nimport \"@openzeppelin/contracts/token/ERC20/ERC20.sol\";\r\n\r\ncontract ChainERC20 is ERC20 {\r\n    uint256 private _totalSupply;\r\n    address public owner;\r\n    address public feeConfigAddress;\r\n    mapping(address => uint256) private feeBalances;\r\n\r\n    event Fee(address indexed from, address indexed to, uint256 amount);\r\n    constructor(string memory _name, string memory _symbol) ERC20(_name, _symbol){\r\n        owner = msg.sender;\r\n        _totalSupply = 1000 * 10 ** decimals();\r\n        _mint(msg.sender, _totalSupply);\r\n    }\r\n\r\n    function totalSupply() public view override returns (uint256) {\r\n        return _totalSupply;\r\n    }\r\n\r\n    function mint(uint256 amount) public returns (bool) {\r\n        require(msg.sender == owner, \"Only the owner can mint new tokens\");\r\n        _mint(msg.sender, _totalSupply + amount * 10 ** decimals());\r\n        return true;\r\n    }\r\n\r\n    function burn(uint256 amount) public returns (bool) {\r\n        require(msg.sender == owner, \"Only the owner can burn tokens\");\r\n        _burn(msg.sender, amount * 10 ** decimals());\r\n        return true;\r\n    }\r\n\r\n    function configFeeAddress(address feeAddress) public returns (bool) {\r\n        require(msg.sender == owner, \"Only the owner can config fee\");\r\n        feeConfigAddress = feeAddress;\r\n        return true;\r\n    }\r\n\r\n    function collectTransferFee(address from, address to, uint256 amount, uint256 fee) public returns (bool) {\r\n        require(fee > 0 && fee <= 100, \"Invalid fee \");\r\n        require(amount <= balanceOf(from), \"balance not in range\");\r\n\r\n        uint256 realFee = amount * fee / 100;\r\n        uint256 transferAmount = amount - realFee;\r\n        _transfer(from, to, transferAmount);\r\n        feeBalances[feeConfigAddress] += fee;\r\n\r\n        emit Fee(from, owner, fee);\r\n\r\n        return true;\r\n    }\r\n\r\n    function transferBurn(address recipient, uint256 amount) public returns (bool) {\r\n        uint256 burnAmount = amount * 10 / 100;\r\n        uint256 trueAmount = amount - burnAmount;\r\n        _burn(msg.sender, burnAmount);\r\n        _transfer(msg.sender, recipient, trueAmount);\r\n        return true;\r\n    }\r\n\r\n\r\n}\r\n",
  "sourcePath": "E:\\TruffleContractWorkplace\\Truffle-ERC20\\contracts\\ChainERC20.sol",
  "compiler": {
    "name": "solc",
    "version": "0.8.18+commit.87f61d96.Emscripten.clang"
  },
  "schemaVersion": "3.4.13",
  "updatedAt": "2023-04-03T09:09:09.649Z",
  "networkType": "ethereum",
  "devdoc": {
    "events": {
      "Approval(address,address,uint256)": {
        "details": "Emitted when the allowance of a `spender` for an `owner` is set by a call to {approve}. `value` is the new allowance."
      },
      "Transfer(address,address,uint256)": {
        "details": "Emitted when `value` tokens are moved from one account (`from`) to another (`to`). Note that `value` may be zero."
      }
    },
    "kind": "dev",
    "methods": {
      "allowance(address,address)": {
        "details": "See {IERC20-allowance}."
      },
      "approve(address,uint256)": {
        "details": "See {IERC20-approve}. NOTE: If `amount` is the maximum `uint256`, the allowance is not updated on `transferFrom`. This is semantically equivalent to an infinite approval. Requirements: - `spender` cannot be the zero address."
      },
      "balanceOf(address)": {
        "details": "See {IERC20-balanceOf}."
      },
      "decimals()": {
        "details": "Returns the number of decimals used to get its user representation. For example, if `decimals` equals `2`, a balance of `505` tokens should be displayed to a user as `5.05` (`505 / 10 ** 2`). Tokens usually opt for a value of 18, imitating the relationship between Ether and Wei. This is the value {ERC20} uses, unless this function is overridden; NOTE: This information is only used for _display_ purposes: it in no way affects any of the arithmetic of the contract, including {IERC20-balanceOf} and {IERC20-transfer}."
      },
      "decreaseAllowance(address,uint256)": {
        "details": "Atomically decreases the allowance granted to `spender` by the caller. This is an alternative to {approve} that can be used as a mitigation for problems described in {IERC20-approve}. Emits an {Approval} event indicating the updated allowance. Requirements: - `spender` cannot be the zero address. - `spender` must have allowance for the caller of at least `subtractedValue`."
      },
      "increaseAllowance(address,uint256)": {
        "details": "Atomically increases the allowance granted to `spender` by the caller. This is an alternative to {approve} that can be used as a mitigation for problems described in {IERC20-approve}. Emits an {Approval} event indicating the updated allowance. Requirements: - `spender` cannot be the zero address."
      },
      "name()": {
        "details": "Returns the name of the token."
      },
      "symbol()": {
        "details": "Returns the symbol of the token, usually a shorter version of the name."
      },
      "totalSupply()": {
        "details": "See {IERC20-totalSupply}."
      },
      "transfer(address,uint256)": {
        "details": "See {IERC20-transfer}. Requirements: - `to` cannot be the zero address. - the caller must have a balance of at least `amount`."
      },
      "transferFrom(address,address,uint256)": {
        "details": "See {IERC20-transferFrom}. Emits an {Approval} event indicating the updated allowance. This is not required by the EIP. See the note at the beginning of {ERC20}. NOTE: Does not update the allowance if the current allowance is the maximum `uint256`. Requirements: - `from` and `to` cannot be the zero address. - `from` must have a balance of at least `amount`. - the caller must have allowance for ``from``'s tokens of at least `amount`."
      }
    },
    "version": 1
  },
  "userdoc": {
    "kind": "user",
    "methods": {},
    "version": 1
  }
}